:100000000C9434000C9451000C9451000C94510049
:100010000C9451000C9451000C9451000C9451001C
:100020000C9451000C9451000C9451000C9451000C
:100030000C9451000C947F020C9451000C945100CC
:100040000C9451000C9451000C9451000C945100EC
:100050000C9451000C9451000C9451000C945100DC
:100060000C9451000C94510011241FBECFEFD8E026
:10007000DEBFCDBF11E0A0E0B1E0E8E8F5E102C0ED
:1000800005900D92AE36B107D9F721E0AEE6B1E0AA
:1000900001C01D92A037B207E1F70E949E020C94A6
:1000A000C20A0C940000672B09F073C08A309105D6
:1000B00011F4289808958B30910511F4299808952A
:1000C0008C30910511F42A9808958D30910511F422
:1000D0002B9808958E30910511F42C9808958F3047
:1000E000910511F42D9808958031910511F42E9801
:1000F00008958131910511F42F9808958431910567
:1001000011F4409808958531910511F441980895AE
:100110008631910511F4429808958731910511F4C3
:10012000439808958831910511F4449808958931D0
:10013000910511F4459808958A31910511F4469876
:1001400008958E31910511F4589808958F319105D5
:1001500011F4599808958032910511F45A98089530
:100160008132910511F45B9808958232910511F462
:100170005C9808958332910511F45D980895843256
:10018000910511F45E980895859709F073C05F9802
:1001900008958A30910511F4289A08958B309105BD
:1001A00011F4299A08958C30910511F42A9A089532
:1001B0008D30910511F42B9A08958E30910511F42C
:1001C0002C9A08958F30910511F42D9A089580315D
:1001D000910511F42E9A08958131910511F42F9A09
:1001E00008958431910511F4409A0895853191055F
:1001F00011F4419A08958631910511F4429A0895B7
:100200008731910511F4439A08958831910511F4CD
:10021000449A08958931910511F4459A08958A31D7
:10022000910511F4469A08958E31910511F4589A6A
:1002300008958F31910511F4599A089580329105EE
:1002400011F45A9A08958132910511F45B9A089538
:100250008232910511F45C9A08958332910511F46C
:100260005D9A08958432910511F45E9A08958597F8
:1002700009F45F9A0895CF93C82F80FF07C061E00B
:1002800070E080E290E00E94530006C060E070E001
:1002900080E290E00E945300C1FF07C061E070E07F
:1002A00081E290E00E94530006C060E070E081E2CD
:1002B00090E00E945300C2FF07C061E070E082E25C
:1002C00090E00E94530006C060E070E082E290E09F
:1002D0000E945300C3FF07C061E070E08AE090E035
:1002E0000E94530006C060E070E08AE090E00E9447
:1002F0005300CF910895CF93C82F60E070E08EE156
:1003000090E00E9453008C2F0E943B0161E070E05E
:100310008FE190E00E9453008FE99FE00197F1F791
:1003200000C0000060E070E08FE190E00E945300A8
:100330008FE99FE00197F1F700C00000CF91089589
:1003400080E00E947B0181E00E947B010895CF93B1
:10035000C62F813059F480E8860F82958F700E94F5
:100360007B018C2F8F700E947B010CC0823051F476
:1003700080EC860F82958F700E947B018C2F8F708E
:100380000E947B01CF91089580E00E943B012FEFF6
:1003900089EF90E0215080409040E1F700C00000DC
:1003A00083E00E947B018FE19EE40197F1F700C09A
:1003B000000083E00E947B018FED9BEA0197F1F73B
:1003C00000C0000083E00E947B0182E00E947B016C
:1003D00082E00E947B0188E00E947B0180E00E9415
:1003E0007B018CE00E947B0180E00E947B0186E023
:1003F0000E947B010895CF93C82F61E070E08EE1E9
:1004000090E00E9453008C2F82958F700E943B01D8
:1004100061E070E08FE190E00E9453008FE99FE07F
:100420000197F1F700C0000060E070E08FE190E01C
:100430000E9453008FE99FE00197F1F700C0000090
:100440008C2F8F700E943B0161E070E08FE190E0A3
:100450000E9453008FE99FE00197F1F700C0000070
:1004600060E070E08FE190E00E9453008FE99FE030
:100470000197F1F700C00000CF910895CF93DF936B
:10048000EC018881882331F021960E94FB0189913B
:100490008111FBCFDF91CF910895CF93C82F80E0DA
:1004A0000E9442088C2F0E944208CF910895ECE7E9
:1004B000F0E09081987F908390818770982B908353
:1004C000EAE7F0E0808180648083808186FDFDCF53
:1004D00080917800909179000895E1E8F0E08081C2
:1004E00084608083109285001092840081E0809364
:1004F0006F00789410926F0110926E0108951F9210
:100500000F920FB60F9211248F939F9380916E01DB
:1005100090916F01892B29F010926F0110926E015A
:1005200006C081E090E090936F0180936E019F91EF
:100530008F910F900FBE0F901F901895CF93DF9360
:10054000CDB7DEB7CF5FD1090FB6F894DEBF0FBECF
:10055000CDBF8AB18F618AB9209A0E94C4010E94DE
:100560003B080E94180887E880937A000E946D0279
:1005700038983998219889E0E0E0F1E0DE01AA514D
:10058000BF4F01900D928A95E1F780E00E944D02E5
:10059000C251DF4F8881CE5ED0400E9428080E9461
:1005A000A0013E0129ED620E711C1E013EED230EDD
:1005B000311C7E0141EDE40EF11CC450DF4FE88296
:1005C000CC5FD040C350DF4FF882CD5FD04089E68A
:1005D00090E08C0F9D1F0A97C250DF4F998388834C
:1005E000CE5FD040CD50DF4F6882C35FD040CC504B
:1005F000DF4F7882C45FD040C950DF4F2882C75F89
:10060000D040C850DF4F3882C85FD040C450DF4F61
:100610009881CC5FD040CB50DF4F9883C55FD040EE
:10062000C350DF4FE881CD5FD040CA50DF4FE88331
:10063000C65FD0400E94A00162E081E00E94A70155
:1006400089E091E00E943E0265E082E00E94A701FD
:1006500085E191E00E943E02FFEF23ED30E3F1508F
:1006600020403040E1F700C000000E94A00161E09E
:1006700081E00E94A7018CE191E00E943E0266E0C9
:1006800082E00E94A7018BE291E00E943E026FE0AF
:1006900082E00E94A7018EE70E94FB01199BFECF1A
:1006A0000E94A00160E081E00E94A70183E391E045
:1006B0000E943E026EE081E00E94A70181E40E9458
:1006C000FB0160E082E00E94A7016EE082E00E94F0
:1006D000A70186E50E94FB01CE010196C151DF4FC3
:1006E00099838883CF5ED040FE01E759FF4FCF50FA
:1006F000DF4FF983E883C15FD04000E010E00F2EA8
:10070000FAE04F2E512CF02D802F0E944D020F5FEA
:100710001F4FB801882777FD8095982F0E944909BF
:100720002AE939E949E750E40E94280A0E9484092D
:100730000E9416096B01CB0164E670E00E948B0AEF
:100740005C01882777FD8095982F0E9449090E94B7
:10075000840920E030E040E452E40E944A080E940C
:100760001B09F30160832EE22183C501B2010E94BF
:100770008B0A882777FD8095982F0E9449090E944F
:10078000840920E030E040E452E40E944A080E94DC
:100790001B09F3016283C601B2010E948B0A805DCE
:1007A0008383148269E081E00E94A701CD50DF4F6E
:1007B0008881C35FD040CC50DF4F9881C45FD04068
:1007C0000E943E0281E00E945702CF50DF4FE88135
:1007D000F981C15FD04081939193CF50DF4FF9836E
:1007E000E883C15FD040BC016F5F7F4F80E090E045
:1007F0000E94470920E030E04AEF5EE30E94280AA9
:100800009B01AC010E944A080E9484090E941B09B6
:100810004B015C019B013695279536952795ABE7F3
:10082000B4E10E949F0A6C01D694C794B60180E09F
:1008300090E00E9447090E94840920E030E040E4F3
:1008400052E40E944A080E941B09F10160832EE2D3
:10085000218334E63C9DC0013D9D900D11249401FF
:10086000281B390BADECBCEC0E949F0A969587952E
:100870009695879596958795BC0180E090E00E94BB
:1008800047090E94840920E030E040E452E40E94DD
:100890004A080E941B09F10162839401ADECBCEC93
:1008A0000E949F0A96958795969587959695879528
:1008B0009C01220F331F880F991F880F991F880FE3
:1008C000991F820F931F9401281B390BC901805D6A
:1008D0008383148269E082E00E94A701C950DF4F40
:1008E0008881C75FD040C850DF4F9881C85FD04033
:1008F0000E943E0280E00E9457028E32910554F021
:100900008D97C151DF4FE881F981CF5ED04091834F
:10091000808308C0C151DF4FE881F981CF5ED040AC
:1009200011821082C151DF4FE881F981CF5ED04042
:1009300061917191C151DF4FF983E883CF5ED0405F
:100940006F5F7F4F80E090E00E94470920E030E039
:100950004AEF5EE30E94280A0E9484090E941B0954
:100960004B015C019B013695279536952795ABE7A2
:10097000B4E10E949F0A6C01D694C794B60180E04E
:1009800090E00E9447090E94840920E030E040E4A2
:1009900052E40E944A080E941B09F70160832EE27C
:1009A000218334E63C9DC0013D9D900D11249401AE
:1009B000281B390BADECBCEC0E949F0A96958795DD
:1009C0009695879596958795BC0180E090E00E946A
:1009D00047090E94840920E030E040E452E40E948C
:1009E0004A080E941B09F70162839401ADECBCEC3C
:1009F0000E949F0A969587959695879596958795D7
:100A00009C01220F331F880F991F880F991F880F91
:100A1000991F820F931F9401281B390BC901805D18
:100A20008383148260E082E00E94A701CB50DF4FF5
:100A30008881C55FD040CA50DF4F9881C65FD040E3
:100A40000E943E02C801019780FD08C0C251DF4FDD
:100A50008881CE5ED0400E94280807C0C351DF4F76
:100A60008881CD5ED0400E9428083FEF45EA8EE0A5
:100A7000315040408040E1F700C0000004331105D0
:100A800009F042CE80E00E944D02C251DF4F9881B2
:100A9000CE5ED040C550DF4F9883CB5FD040892FCA
:100AA0000E942808C450DF4FC880CC5FD040C3509C
:100AB000DF4FD880CD5FD04003E310E00F2EF8EC7D
:100AC0008F2E912CF02D24E330E0B401F6019291A9
:100AD00082916F018E359140A0F4B8016F5F7F4F16
:100AE000882777FD8095982F0E9449092AE939E9DE
:100AF00049E750E40E94280A0E9484090E941609CE
:100B000098010150110910F74B01C90105971816FA
:100B100019060CF0A5C0C901880F991FCF50DF4FEF
:100B200099838883C15FD040C250DF4FC880D9808D
:100B3000CE5FD040C80ED91E8E0107591F4FA12C81
:100B4000B12CC151DF4F19821882CF5ED0404424AE
:100B50004394512CC750DF4F79836883C95FD040DD
:100B6000812C912CF801619171918F016F5F7F4F02
:100B700080E090E00E94470920E030E04AEF5EE329
:100B80000E94280A9B01AC010E944A080E94840925
:100B90000E9416099B016732F2E07F0714F0842C53
:100BA000952CA216B3060CF45B010C151D05D1F6AD
:100BB000C151DF4F99828882CF5ED040C750DF4F4E
:100BC00088809980C95FD040CF50DF4FC880D980DE
:100BD000C15FD04027EF3FEF2C0F3D1FC20ED31E49
:100BE0008E010F5F1F4F412C512CCF50DF4F1982C8
:100BF0001882C15FD040C750DF4FB982A882C95F59
:100C0000D040A12CB12CF801619171918F0180E04D
:100C100090E00E94470920E030E04AEF5EE30E9446
:100C2000280A0E9484090E9416099B016B3F7105E6
:100C30001CF0AA24A394B12C421653060CF42B01E9
:100C40000C151D0501F7CF50DF4FB982A882C15F97
:100C5000D040C750DF4FA880B980C95FD04010C0D6
:100C6000A12CB12CC151DF4F19821882CF5ED04028
:100C7000412C512CCF50DF4F19821882C15FD040D8
:100C80000E94A00160E081E00E94A70180E391E062
:100C90000E943E02C40164E670E00E948B0A8C014F
:100CA000882777FD8095982F0E9449090E94840922
:100CB00020E030E040E452E40E944A080E941B0910
:100CC000F30160838EE28183C8016AE070E00E94D4
:100CD0008B0A882777FD8095982F0E9449090E94EA
:100CE000840920E030E040E452E40E944A080E9477
:100CF0001B09F30162831382CD50DF4F8881C35FEC
:100D0000D040CC50DF4F9881C45FD0400E943E025B
:100D100081E40E94FB0160E082E00E94A701CF50C5
:100D2000DF4F88819981C15FD040C151DF4F288159
:100D30003981CF5ED040822B932B892B29F08DE314
:100D400091E00E943E0204C084E491E00E943E02D1
:100D5000C401880F991F880F991F880F991F68EC8D
:100D600070E00E948B0A882777FD8095982F0E945B
:100D700049090E948409C151DF4FE881F981CF5EA2
:100D8000D040EF2B41F4CF50DF4F28813981C15F34
:100D9000D040232B41F0C550DF4F8881CB5FD0403E
:100DA0000E9428080DC00E941609E6EEF0E0EC0F44
:100DB000FD1F6E0F7F1FFB01319780810E94280865
:100DC0006BE082E00E94A70189E491E00E943E026C
:100DD0008EE70E94FB01199BFECF10926F011092CB
:100DE0006E01109285001092840007C080916E0100
:100DF00090916F01019709F41DCC1999F7CF4CC060
:100E0000C251DF4F8881CE5ED0400E94280807C0C3
:100E1000C351DF4F8881CD5ED0400E9428086BE02F
:100E200082E00E94A70189E491E00E943E028EE7E1
:100E30000E94FB01199BFECF10926F0110926E0170
:100E4000109285001092840007C080916E019091ED
:100E50006F01019709F4EECB1999F7CF79C0C25110
:100E6000DF4F8881CE5ED0400E94280807C0C35162
:100E7000DF4F8881CD5ED0400E9428086AE082E082
:100E80000E94A7018EE491E00E943E028EE70E943C
:100E9000FB01199BFECFBACBC50152012C010E9468
:100EA000A00160E081E00E94A70184E591E00E943A
:100EB0003E02C20164E670E00E948B0A8C01882722
:100EC00077FD8095982F0E9449090E94840920E0AF
:100ED00030E040E452E40E944A080E941B09F701F6
:100EE00060838EE28183C8016AE070E00E948B0A11
:100EF000882777FD8095982F0E9449090E948409D0
:100F000020E030E040E452E40E944A080E941B09BD
:100F1000F70162831382C450DF4F8881CC5FD040D9
:100F2000C350DF4F9881CD5FD0400E943E0286E5DE
:100F30000E94FB0160E082E00E94A701C151DF4FE7
:100F400028813981CF5ED040232B09F059CF60CF63
:100F5000B501882777FD8095982F0E9449092BE7D6
:100F600034E14EEA50E40E94AE080E9416096B017B
:100F70000E94A00160E081E00E94A70181E691E06B
:100F80000E943E02C60164E670E00E948B0A5C018A
:100F9000882777FD8095982F0E9449090E9484092F
:100FA00020E030E040E452E40E944A080E941B091D
:100FB000F70160838EE281830AE010E0C501B80189
:100FC0000E948B0A882777FD8095982F0E944909F7
:100FD0000E94840920E030E040E452E40E944A0884
:100FE0000E941B09F7016283C601B8010E948B0AA7
:100FF000805D83831482C450DF4F8881CC5FD040F2
:10100000C350DF4F9881CD5FD0400E943E0286E5FD
:101010000E94FB0160E082E00E94A701CF50DF4FF9
:1010200028813981C15FD040232B09F018CF1FCF11
:101030008AB1806E8AB908955E9A5E9808955F9A23
:1010400081E08A95F1F75F9881E08A95F1F708953C
:10105000CF93DF93D82FC8E0DD2314F45D9A01C04D
:101060005D980E941C08DD0FC150B1F70E941F0857
:10107000DF91CF91089584B18C6284B980E58CBDF5
:101080002A9A08952A988EBD0DB407FEFDCF8EB51D
:1010900008955058BB27AA270ED089C17AD130F0C5
:1010A0007FD120F031F49F3F11F41EF46FC10EF494
:1010B000E095E7FB3CC1E92F8BD180F3BA176207BB
:1010C00073078407950718F071F49EF5BAC10EF402
:1010D000E0950B2EBA2FA02D0B01B90190010C0148
:1010E000CA01A0011124FF27591B99F0593F50F460
:1010F000503E68F11A16F040A22F232F342F4427B8
:10110000585FF3CF469537952795A795F0405395AF
:10111000C9F77EF41F16BA0B620B730B840BBAF07F
:101120009150A1F0FF0FBB1F661F771F881FC2F7EA
:101130000EC0BA0F621F731F841F48F487957795FE
:101140006795B795F7959E3F08F0B3CF9395880FB5
:1011500008F09927EE0F9795879508950CD027C131
:101160001FD140F016D130F021F45F3F19F0DFC0FD
:10117000511168C10BC12CD198F39923C9F35523A0
:10118000B1F3951B550BBB27AA276217730784077A
:1011900038F09F5F5F4F220F331F441FAA1FA9F330
:1011A00033D00E2E3AF0E0E830D091505040E69522
:1011B000001CCAF729D0FE2F27D0660F771F881F83
:1011C000BB1F261737074807AB07B0E809F0BB0B72
:1011D000802DBF01FF2793585F4F2AF09E3F510596
:1011E00068F0A5C02FC15F3FECF3983EDCF3869515
:1011F00077956795B795F7959F5FC9F7880F911D0C
:101200009695879597F90895E1E0660F771F881FF7
:10121000BB1F621773078407BA0720F0621B730BAA
:10122000840BBA0BEE1F88F7E095089504D06894FC
:10123000B11108C10895D4D088F09F5790F0B92F0C
:101240009927B751A0F0D1F0660F771F881F991F1B
:101250001AF0BA95C9F712C0B13081F0F2D0B1E0FE
:101260000895EFC0672F782F8827B85F39F0B93F0E
:10127000CCF3869577956795B395D9F73EF490951D
:101280008095709561957F4F8F4F9F4F0895E8949B
:1012900009C097FB3EF490958095709561957F4FBE
:1012A0008F4F9F4F9923A9F0F92F96E9BB2793956C
:1012B000F695879577956795B795F111F8CFFAF47C
:1012C000BB0F11F460FF1BC06F5F7F4F8F4F9F4FAD
:1012D00016C0882311F096E911C0772321F09EE80B
:1012E000872F762F05C0662371F096E8862F70E071
:1012F00060E02AF09A95660F771F881FDAF7880F4B
:101300009695879597F9089585D080F09F3740F49A
:1013100091110EF097C060E070E080E89FEB0895B7
:1013200026F41B16611D711D811D07C021C097F990
:101330009F6780E870E060E00895882371F4772368
:1013400021F09850872B762F07C0662311F4992738
:101350000DC09051862B70E060E02AF09A95660FE0
:10136000771F881FDAF7880F9695879597F9089564
:101370009F3F31F0915020F4879577956795B79509
:10138000880F911D9695879597F908959FEF80ECAA
:10139000089500240A9416161706180609060895DB
:1013A00000240A9412161306140605060895092E41
:1013B0000394000C11F4882352F0BB0F40F4BF2BB0
:1013C00011F460FF04C06F5F7F4F8F4F9F4F0895F0
:1013D00057FD9058440F551F59F05F3F71F04795E6
:1013E000880F97FB991F61F09F3F79F087950895CB
:1013F000121613061406551FF2CF4695F1DF08C0EA
:10140000161617061806991FF1CF86957105610506
:1014100008940895E5DFA0F0BEE7B91788F4BB276C
:101420009F3860F41616B11D672F782F8827985FB4
:10143000F7CF869577956795B11D93959639C8F343
:101440000895E894BB2766277727CB0197F908957D
:101450000BD0ADCF9EDF28F0A3DF18F0952309F065
:1014600066CF94CF1124EECFB3DFA0F3959FD1F3D5
:10147000950F50E0551F629FF001729FBB27F00D42
:10148000B11D639FAA27F00DB11DAA1F649F662797
:10149000B00DA11D661F829F2227B00DA11D621FE6
:1014A000739FB00DA11D621F839FA00D611D221FA0
:1014B000749F3327A00D611D231F849F600D211D84
:1014C000822F762F6A2F11249F5750408AF0E1F027
:1014D00088234AF0EE0FFF1FBB1F661F771F881F70
:1014E00091505040A9F79E3F510570F020CFAACFF0
:1014F0005F3FECF3983EDCF3869577956795B7955B
:10150000F795E7959F5FC1F7FE2B880F911D969584
:10151000879597F9089597FB072E16F4009407D046
:1015200077FD09D00E94AE0A07FC05D03EF49095E5
:1015300081959F4F0895709561957F4F0895A29F63
:10154000B001B39FC001A39F700D811D1124911D97
:10155000B29F700D811D1124911D0895AA1BBB1B04
:1015600051E107C0AA1FBB1FA617B70710F0A61BA3
:10157000B70B881F991F5A95A9F780959095BC01C4
:08158000CD010895F894FFCF9E
:101588000103070F1F3F7FFF00555342205175612C
:101598006C69747900546573746572005072657370
:1015A8007320746F20626567696E007465737400D8
:1015B8004D617843757272656E743A200044616EAD
:1015C80067657200476F6F64004E657874005265F6
:1015D800736574004D6178566F6C746167653A2065
:0E15E800004D6178526970706C653A20000009
:00000001FF
